:100000000C9434000C9451000C9451000C94510049
:100010000C9451000C9451000C9451000C9451001C
:100020000C9451000C9451000C9451000C9451000C
:100030000C9451000C9451000C9451000C945100FC
:100040000C9451000C9451000C9451000C945100EC
:100050000C9451000C9451000C9451000C945100DC
:100060000C9451000C94510011241FBECFEFD8E026
:10007000DEBFCDBF11E0A0E0B1E0E0E3FDE002C0F3
:1000800005900D92AE31B107D9F721E0AEE1B1E0B4
:1000900001C01D92A232B207E1F70E949E000C94AB
:1000A00096060C94000087B1816087B98AB18C6F85
:1000B0008AB91BB884B1876084B915B820E040E0E4
:1000C00060E086E50E940A0187E60E9471010895BA
:1000D000CF92DF92EF92FF92682F70E080E090E085
:1000E0000E94B30220E030E040EA50E40E943F0367
:1000F00020E030E04FE753E40E9410026B017C01E6
:100100000E94820260931F0170E080E090E00E94F4
:10011000B1029B01AC01C701B6010E94A30120E01E
:1001200030E048EC52E40E943F030E948202609358
:100130001E01FF90EF90DF90CF900895CF93DF9353
:10014000CDB7DEB7A0970FB6F894DEBF0FBECDBF18
:100150000E9453002FEF83ED90E3215080409040A8
:10016000E1F700C0000085B18B7F85B980E00E9477
:100170006A010E946C018093210188B1816088B975
:1001800081E00E946A010E946C018093200185B188
:10019000846085B9809121010E94680080911E01D0
:1001A0001F928F9380911F011F928F9380E091E0A7
:1001B0009F938F938E010F5F1F4F1F930F930E948A
:1001C000AC03C8010E949001809120010E94680048
:1001D00080911E011F928F9380911F011F928F9318
:1001E0008FE091E09F938F931F930F930E94AC0336
:1001F000C8010E9490012FEF84E39CE021508040D1
:100200009040E1F700C000000FB6F894DEBF0FBECB
:10021000CDBFA9CF84FF4EC094B19C6294B994B174
:100220009F7E94B99CB590619CBD87708330D1F05E
:1002300028F4882349F0813071F045C0853031F1D0
:10024000D8F0863069F13FC08CB58C7F8CBD8DB500
:1002500081608DBD38C08CB58C7F8CBD8DB58E7F97
:100260008DBD31C08CB581608CBD8CB58D7F8CBD52
:100270008DB58E7F8DBD27C08CB58E7F8CBD8CB526
:1002800082608CBD8DB581608DBD1DC08CB58E7FAB
:100290008CBD8CB582608CBD8DB58E7F8DBD13C03D
:1002A0008CB581608CBD8CB582608CBD8DB58E7F28
:1002B0008DBD09C084B1806184B984B1877F84B960
:1002C0008CB58F7E8CBD8CB5462B242B282B2064BF
:1002D0002CBD08958EBD08950DB407FEFDCF8EB5DB
:1002E00008959AB192609AB99AB19E7F9AB9109284
:1002F000C000E1ECF0E0908198699083E2ECF0E0DE
:1003000090819660908390E09093C5008093C400A4
:1003100008959091C00095FFFCCF8093C60008958A
:100320000F931F93CF938C01C0E003C00E948901FB
:10033000CF5FF801EC0FF11D80818111F7CFCF91D4
:100340001F910F9108955058BB27AA270E94BB0107
:100350000C9405030E94F70238F00E94FE0220F080
:1003600039F49F3F19F426F40C94F4020EF4E0954E
:10037000E7FB0C94EE02E92F0E94160358F3BA171C
:10038000620773078407950720F079F4A6F50C94AB
:1003900038030EF4E0950B2EBA2FA02D0B01B901F6
:1003A00090010C01CA01A0011124FF27591B99F0EB
:1003B000593F50F4503E68F11A16F040A22F232FF7
:1003C000342F4427585FF3CF469537952795A79547
:1003D000F0405395C9F77EF41F16BA0B620B730BEE
:1003E000840BBAF09150A1F0FF0FBB1F661F771F5F
:1003F000881FC2F70EC0BA0F621F731F841F48F414
:10040000879577956795B795F7959E3F08F0B0CF9C
:100410009395880F08F09927EE0F97958795089583
:100420000E9424020C9405030E94FE0258F00E94D0
:10043000F70240F029F45F3F29F00C94EE025111CD
:100440000C9439030C94F4020E94160368F3992368
:10045000B1F3552391F3951B550BBB27AA276217C0
:100460007307840738F09F5F5F4F220F331F441FCD
:10047000AA1FA9F335D00E2E3AF0E0E832D0915001
:100480005040E695001CCAF72BD0FE2F29D0660FEE
:10049000771F881FBB1F261737074807AB07B0E831
:1004A00009F0BB0B802DBF01FF2793585F4F3AF037
:1004B0009E3F510578F00C94EE020C9439035F3F97
:1004C000E4F3983ED4F3869577956795B795F795BD
:1004D0009F5FC9F7880F911D9695879597F90895A5
:1004E000E1E0660F771F881FBB1F62177307840741
:1004F000BA0720F0621B730B840BBA0BEE1F88F750
:10050000E09508950E941E0388F09F5798F0B92F38
:100510009927B751B0F0E1F0660F771F881F991F38
:100520001AF0BA95C9F714C0B13091F00E9438039F
:10053000B1E008950C943803672F782F8827B85FAF
:1005400039F0B93FCCF3869577956795B395D9F790
:100550003EF490958095709561957F4F8F4F9F4F9A
:100560000895E89409C097FB3EF4909580957095A6
:1005700061957F4F8F4F9F4F9923A9F0F92F96E9EF
:10058000BB279395F695879577956795B795F11164
:10059000F8CFFAF4BB0F11F460FF1BC06F5F7F4F01
:1005A0008F4F9F4F16C0882311F096E911C0772313
:1005B00021F09EE8872F762F05C0662371F096E81C
:1005C000862F70E060E02AF09A95660F771F881FEB
:1005D000DAF7880F9695879597F9089597F99F67A9
:1005E00080E870E060E008959FEF80EC08950024BB
:1005F0000A941616170618060906089500240A9488
:1006000012161306140605060895092E0394000C0D
:1006100011F4882352F0BB0F40F4BF2B11F460FF9C
:1006200004C06F5F7F4F8F4F9F4F089557FD9058C5
:10063000440F551F59F05F3F71F04795880F97FBA6
:10064000991F61F09F3F79F0879508951216130660
:100650001406551FF2CF4695F1DF08C0161617068F
:100660001806991FF1CF86957105610508940895C4
:10067000E894BB2766277727CB0197F908950E9456
:1006800052030C9405030E94F70238F00E94FE0208
:1006900020F0952311F00C94EE020C94F402112436
:1006A0000C9439030E94160370F3959FC1F3950FC4
:1006B00050E0551F629FF001729FBB27F00DB11DE6
:1006C000639FAA27F00DB11DAA1F649F6627B00D76
:1006D000A11D661F829F2227B00DA11D621F739F5F
:1006E000B00DA11D621F839FA00D611D221F749F6D
:1006F0003327A00D611D231F849F600D211D822FB4
:10070000762F6A2F11249F5750409AF0F1F08823DA
:100710004AF0EE0FFF1FBB1F661F771F881F915007
:100720005040A9F79E3F510580F00C94EE020C94C6
:1007300039035F3FE4F3983ED4F386957795679548
:10074000B795F795E7959F5FC1F7FE2B880F911D31
:100750009695879597F90895AEE0B0E0E2EBF3E067
:100760000C946D060D891E8986E08C831A8309839B
:100770008FEF9FE79E838D83AE01475E5F4F6F894A
:10078000788DCE0101960E94CE03EF81F885E00FAF
:10079000F11F10822E96E4E00C948906ABE0B0E0E5
:1007A000E4EDF3E00C945F066C017B018A01FC012F
:1007B00017821682838181FFCCC1CE0101963C0154
:1007C000F6019381F70193FD859193FF81917F015C
:1007D000882309F4BAC1853239F493FD859193FFDA
:1007E00081917F01853229F4B60190E00E94C50510
:1007F000E7CF912C212C312CFFE1F315D8F08B326F
:1008000079F038F4803279F08332A1F4232D20611D
:100810001DC08D3261F0803369F4232D216016C034
:10082000832D8260382EE32DE4603E2E2AC0F32D06
:10083000F8601DC037FC2DC020ED280F2A3040F095
:100840008E32B9F436FC81C1232D2064322E19C0BA
:1008500036FE06C08AE0989E200D1124922E11C00B
:10086000EAE02E9E200D1124222EF32DF0623F2E61
:1008700008C08C3621F4832D8068382E02C088365B
:1008800041F4F70193FD859193FF81917F018111DF
:10089000B3CF982F9F7D9554933028F40C5F1F4F52
:1008A0009FE399830DC0833631F0833771F0833530
:1008B00009F059C021C0F801808189830E5F1F4F64
:1008C00088248394912C530113C02801F2E04F0E29
:1008D000511CF801A080B18036FE03C0692D70E084
:1008E00002C06FEF7FEFC5010E94BA054C01820183
:1008F000F32DFF773F2E16C0280122E0420E511C37
:10090000F801A080B18036FE03C0692D70E002C0FE
:100910006FEF7FEFC5010E94AF054C01F32DF0682A
:100920003F2E820133FC1BC0822D90E08816990671
:10093000B0F4B60180E290E00E94C5052A94F4CF9D
:10094000F50137FC859137FE81915F01B60190E09A
:100950000E94C50521102A9421E0821A9108811471
:10096000910471F7E8C0843611F0893641F5F80139
:1009700037FE07C060817181828193810C5F1F4FB8
:1009800008C060817181072E000C880B990B0E5FE7
:100990001F4FF32DFF763F2E97FF09C0909580954E
:1009A000709561957F4F8F4F9F4FF0683F2E2AE0E3
:1009B00030E0A3010E940106882E861845C08537C5
:1009C00031F4232D2F7EB22E2AE030E025C0932D66
:1009D000997FB92E8F36C1F018F4883579F0B5C0FB
:1009E000803719F0883721F0B0C0E92FE061BE2EC2
:1009F000B4FE0DC0FB2DF460BF2E09C034FE0AC04A
:100A0000292F2660B22E06C028E030E005C020E184
:100A100030E002C020E132E0F801B7FE07C060819B
:100A20007181828193810C5F1F4F06C0608171814B
:100A300080E090E00E5F1F4FA3010E940106882E08
:100A40008618FB2DFF773F2E36FE0DC0232D2E7FFF
:100A5000A22E891458F434FE0BC032FC09C0832D39
:100A60008E7EA82E05C0B82CA32C03C0B82C01C0C4
:100A7000B92CA4FE0FC0FE01E80DF11D808180336A
:100A800021F49A2D997EA92E09C0A2FE06C0B39426
:100A9000B39404C08A2D867809F0B394A3FC11C0E6
:100AA000A0FE06C0B21488F4280C922C9B180EC02D
:100AB000B21460F4B60180E290E00E94C505B394E0
:100AC000F7CFB21418F42B1802C0982C212CA4FED6
:100AD00010C0B60180E390E00E94C505A2FE17C0D9
:100AE000A1FC03C088E790E002C088E590E0B60171
:100AF0000CC08A2D867859F0A1FE02C08BE201C09D
:100B000080E2A7FC8DE2B60190E00E94C505891441
:100B100038F4B60180E390E00E94C5059A94F7CFBF
:100B20008A94F301E80DF11D8081B60190E00E94E6
:100B3000C5058110F5CF222009F442CEB60180E22E
:100B400090E00E94C5052A94F6CFF6018681978130
:100B500002C08FEF9FEF2B96E2E10C947B06FC0125
:100B60000590615070400110D8F7809590958E0FD8
:100B70009F1F0895FC016150704001900110D8F74B
:100B8000809590958E0F9F1F08950F931F93CF937D
:100B9000DF93FB01238121FD03C08FEF9FEF2CC06A
:100BA00022FF16C0468157812481358142175307A1
:100BB00044F4A081B1819D012F5F3F4F3183208399
:100BC0008C93268137812F5F3F4F3783268314C054
:100BD0008B01EC01FB010084F185E02D0995892B47
:100BE000E1F6D80116968D919C911797019617966C
:100BF0009C938E931697CE01DF91CF911F910F9109
:100C00000895FA01AA27283051F1203181F1E894A2
:100C10006F936E7F6E5F7F4F8F4F9F4FAF4FB1E0EF
:100C20003ED0B4E03CD0670F781F891F9A1FA11DEA
:100C3000680F791F8A1F911DA11D6A0F711D811DEB
:100C4000911DA11D20D009F468943F912AE0269FB0
:100C500011243019305D3193DEF6CF010895462F0F
:100C60004770405D4193B3E00FD0C9F7F6CF462FF0
:100C70004F70405D4A3318F0495D31FD4052419359
:100C800002D0A9F7EACFB4E0A69597958795779516
:100C90006795BA95C9F700976105710508959B019D
:100CA000AC010A2E06945795479537952795BA9526
:100CB000C9F7620F731F841F951FA01D08952F92FF
:100CC0003F924F925F926F927F928F929F92AF92DC
:100CD000BF92CF92DF92EF92FF920F931F93CF9329
:100CE000DF93CDB7DEB7CA1BDB0B0FB6F894DEBFC0
:100CF0000FBECDBF09942A88398848885F846E84E6
:100D00007D848C849B84AA84B984C884DF80EE802F
:100D1000FD800C811B81AA81B981CE0FD11D0FB638
:100D2000F894DEBF0FBECDBFED010895F894FFCF5C
:100D300053313A2025642E25303264560D0A005373
:0E0D4000323A2025642E25303264560D0A000A
:00000001FF
